:100000000C945A020C9482020C9482020C94820288
:100010000C9482020C9482020C9482020C94820250
:100020000C9482020C9482020C9448120C941411C9
:100030000C9482020C9482020C9482020C94820230
:100040000C9482020C9482020C9482020C94820220
:100050000C9482020C9482020C9482020C9402157D
:100060000C9482020C94B40B0C94E60B0C94820258
:100070000C9482020C9482020C9482020C948202F0
:100080000C9482020C9482020C9482020C948202E0
:100090000C9482020C9482020C9482020C948202D0
:1000A0000C9482020C9482020C9482026E037303FD
:1000B000AA039103AA03AA03A803AA03AA03AA03F3
:1000C0009103AA036903AA03AA03AA03AA033E038E
:1000D00011161416031607160D1635163516351695
:1000E00018161C16201626162A16351630164552D6
:1000F000524F523A20626164204D4643207265732C
:10010000706F6E736520746F20756E6974732063F1
:1001100068616E67652E004552524F523A20626107
:1001200064204D464320726573706F6E73652E00B8
:100130004552524F523A20626164204D464320722C
:1001400065706F6E73652E004552524F523A2062B1
:100150006164204D4643207265706F6E73652E009A
:100160003C2D2D202020003D3D3E2000080B0002AC
:10017000020201000904000001020200000524003F
:1001800010010524010101042402060524060001D2
:100190000705810310004009040100020A00000065
:1001A000070502024000000705830240000000C16D
:1001B0008081C1120100020200004041233780000B
:1001C000010102000112010002000000404123373A
:1001D0008000010102000141726475696E6F204C5C
:1001E0004C430041726475696E6F204D6963726F94
:1001F00000040309040000000200090F00000304CA
:1002000001000C00000000000000000000000000E1
:10021000000000040802011040804010204080408F
:10022000800802040180402010020110801020404C
:10023000400404040404030405020202020403024D
:100240000202020606060606060404020202040072
:100250000000002300260029002C002F00000000D1
:1002600000250028002B002E003100000000002493
:100270000027002A002D00300000000000000000D0
:10028000002A2B28000000000000000000000000F1
:100290000000000000000000002C9EB4A0A1A2A459
:1002A00034A6A7A5AE362D3738271E1F20212223BE
:1002B000242526B333B62EB7B89F848586878889D0
:1002C0008A8B8C8D8E8F9091929394959697989916
:1002D0009A9B9C9D2F3130A3AD3504050607080974
:1002E0000A0B0C0D0E0F10111213141516171819F6
:1002F0001A1B1C1DAFB1B0B50009040200010300B8
:100300000000092101010001226500070584034066
:10031000000105010902A1010901A10085010509EA
:100320001901290315002501950375018102950125
:100330007505810305010930093109381581257FCB
:10034000750895038106C0C005010906A101850253
:10035000050719E029E715002501750195088102B7
:100360009501750881039506750815002565050733
:10037000190029658100C04E414E494E49545949E2
:100380004E46CDCCCC3D0AD7233C17B7D13877CCDD
:100390002B329595E6241FB14F0A00002041000042
:1003A000C84200401C4620BCBE4CCA1B0E5AAEC5FB
:1003B0009D7400407A10F35A00A0724E1809001084
:1003C000A5D4E80000E87648170000E40B540200CA
:1003D00000CA9A3B000000E1F505000080969800F5
:1003E000000040420F000000A0860100000010271E
:1003F00000000000E80300000000640000000000AE
:100400000A00000000000100000000002C76D888DF
:10041000DC674F0823DFC1DFAE59E1B1B796E5E3F2
:10042000E453C63AE651997696E8E6C28426EB890B
:100430008C9B62ED407C6FFCEFBC9C9F40F2BAA5A8
:100440006FA5F490055A2AF75C936B6CF9676DC140
:100450001BFCE0E40D47FEF520E6B500D0ED902E44
:100460000300943577050080841E080000204E0AA2
:10047000000000C80C333333330F986E12831141E0
:10048000EF8D2114893BE65516CFFEE6DB18D184AB
:100490004B381BF77C1D901DA4BBE42420328472D2
:1004A0005E228100C9F124ECA1E53D27B803520A80
:1004B000160C041811241FBECFEFDAE0DEBFCDBF4B
:1004C00012E0A0E0B1E0E6E1F2E402C005900D9296
:1004D000A03FB107D9F728E0A0EFB2E001C01D921C
:1004E000AB32B207E1F714E0C4EBD4E004C02297CA
:1004F000FE010E94551ACC3AD107C9F70E94EF14A9
:100500000C9409210C940000EF92FF920F931F931B
:10051000CF93DF93C0EFD2E000E010E080910A01BA
:1005200090910B010817190764F461E088810E941B
:10053000361660E0888122960E946F160F5F1F4F6B
:10054000EDCF80913D01882329F061E080912A015F
:100550000E946F1661E080912C010E94361660E0C7
:1005600080912C010E946F1661E08EE00E94361689
:100570008CB580648CBD61E080912E010E9436169E
:1005800060E080912E010E946F1626E040E855E25F
:1005900060E070E089E697E00E94520B68EB7BE038
:1005A00080E090E00E947B15409138015091390124
:1005B00060913A0170913B0180910801909109018D
:1005C0000E94F90640913401509135016091360145
:1005D0007091370180910601909107010E94F90600
:1005E00040E855E260E070E089E197E00E944C0A43
:1005F00068EB7BE080E090E00E947B15DF91CF917B
:100600001F910F91FF90EF900C942308DF92EF92CF
:10061000FF920F931F93CF93DF93CDB7DEB7299748
:100620000FB6F894DEBF0FBECDBF81E10E94A516C4
:10063000892B09F08FC08AE58F8319861886FE0101
:100640003796CE010A961EBC00000DB407FEFDCF02
:100650002EB52193E817F907B1F78F81992787FD08
:100660009095A92FB92FFC01E354F109E231F1056E
:1006700008F070C0EA5AFF4F0C94531A0885198588
:10068000C8010E947009609110037091110380915C
:100690001203909113030E94E31884E6D82ED69E8D
:1006A0007001D79EF00C1124609114037091150312
:1006B00080911603909117030E94E318D69E900133
:1006C000D79E300D1124A701B901C8010E946F0700
:1006D00041C0888599850E94E1083CC0888599853C
:1006E0000E94910737C00885198510933301009344
:1006F00032016AE471E089E197E00E94CA0C4AE0A5
:10070000B801CE0101960E947A13BE016F5F7F4F40
:1007100089E197E00E94F90CCE0101960E94BE1279
:1007200019C068857985882777FD8095982F0E9464
:10073000161920E030E048EC52E40E947B18AB012F
:10074000BC0181E090E00E94A3080E94230802C03F
:100750000E94F30729960FB6F894DEBF0FBECDBFF7
:10076000DF91CF911F910F91FF90EF90DF9008954F
:1007700080912A0190912B019093F1028093F002D5
:1007800080912801909129019093F3028093F202C5
:1007900080912601909127019093F5028093F402B5
:1007A00080912401909125019093F7028093F602A5
:1007B00080912201909123019093F9028093F80295
:1007C00080912001909121019093FB028093FA0285
:1007D00080911E0190911F019093FD028093FC0275
:1007E00080911C0190911D019093FF028093FE0265
:1007F00080911A0190911B01909301038093000353
:100800008091180190911901909303038093020342
:100810008091160190911701909305038093040332
:100820008091140190911501909307038093060322
:100830008091120190911301909309038093080312
:10084000809110019091110190930B0380930A0302
:1008500080910E0190910F0190930D0380930C03F2
:1008600080910C0190910D0190930F0380930E03E2
:1008700008951092180320E034E048E153E06AE064
:1008800089E697E00E94E30E885E9C4FFC0110828F
:1008900080911807882361F060E671E089E197E0B4
:1008A0000E94970C68E173E089E197E00C940B0DCE
:1008B0000895CF93DF93EC0161E080912E010E94B7
:1008C0006F16BE0189E697E00E940B0D89E697E05E
:1008D0000E94CB0A60E080912E010E946F168091E9
:1008E0001807882369F067E671E089E197E00E94C4
:1008F000970CBE0189E197E0DF91CF910C940B0D2D
:10090000DF91CF9108950F931F93CF93DF93CDB7CE
:10091000DEB76E970FB6F894DEBF0FBECDBF8C0169
:1009200068E671E0CE0149960E942C13B801CE0111
:1009300049960E94D2136AE671E0CE0149960E9460
:10094000D21320E030E040E054E068E173E0CE01F3
:1009500049960E94741488E193E00E9459040E9411
:10096000390468E173E0CE0143960E942C13B8016C
:10097000CE010D960E942C1368E671E0CE01079619
:100980000E942C13BE01635F7F4FCE0107960E9429
:100990001414BC01CE0101960E945913BE016F5F71
:1009A0007F4FCE0143960E946514182FCE01019609
:1009B0000E94BE12CE0107960E94BE12CE010D9675
:1009C0000E94BE12111106C068E471E089E197E04F
:1009D0000E94E70CCE0143960E94BE12CE014996BA
:1009E0000E94BE126E960FB6F894DEBF0FBECDBF4A
:1009F000DF91CF911F910F910895CF92DF92EF92E7
:100A0000FF920F931F93CF93DF93CDB7DEB76E970F
:100A10000FB6F894DEBF0FBECDBF8C016A017B011B
:100A200068E671E0CE0149960E942C13B801CE0110
:100A300049960E94D2136FE671E0CE0149960E945A
:100A4000D213B701A601CE0149960E94E21320E01D
:100A500030E040E054E068E173E0CE0149960E9446
:100A6000741488E193E00E9459040E94390468E1FB
:100A700073E0CE0143960E942C13B801CE010D966F
:100A80000E942C1368E671E0CE0107960E942C1399
:100A9000BE01635F7F4FCE0107960E94141463E787
:100AA00071E00E942714BC01CE0101960E945913E7
:100AB000BE016F5F7F4FCE0143960E946514182FD1
:100AC000CE0101960E94BE12CE0107960E94BE1270
:100AD000CE010D960E94BE1211110BC060E371E0B1
:100AE00089E197E00E94E70CE12CF12C00E81FEB74
:100AF00015C02F89388D44E050E0BE016D5E7F4FF8
:100B0000CE0101960E949E14CE0101960E94E3142C
:100B10007B018C01CE0101960E94BE12CE0143964C
:100B20000E94BE12CE0149960E94BE12B701C801B2
:100B30006E960FB6F894DEBF0FBECDBFDF91CF919A
:100B40001F910F91FF90EF90DF90CF900895EF925B
:100B5000FF920F931F93CF93DF93CDB7DEB76E97BE
:100B60000FB6F894DEBF0FBECDBF8C0168E671E012
:100B7000CE0149960E942C13B801CE0149960E94DD
:100B8000D21366E771E0CE0149960E94D21320E0AD
:100B900030E040E054E068E173E0CE0149960E9405
:100BA000741488E193E00E9459040E94390468E1BA
:100BB00073E0CE0143960E942C13B801CE010D962E
:100BC0000E942C1368E671E0CE0107960E942C1358
:100BD000BE01635F7F4FCE0107960E941414BC01D3
:100BE000CE0101960E945913BE016F5F7F4FCE0167
:100BF00043960E946514182FCE0101960E94BE12E2
:100C0000CE0107960E94BE12CE010D960E94BE1222
:100C100011110BC067E171E089E197E00E94E70CD8
:100C2000E12CF12C00E81FEB15C02F89388D44E032
:100C300050E0BE016D5E7F4FCE0101960E949E1472
:100C4000CE0101960E94E3147B018C01CE01019636
:100C50000E94BE12CE0143960E94BE12CE0149965A
:100C60000E94BE12B701C8016E960FB6F894DEBF9F
:100C70000FBECDBFDF91CF911F910F91FF90EF90ED
:100C800008950F931F93CF93DF9300D000D000D02F
:100C9000CDB7DEB78C0168E671E0CE0101960E9407
:100CA0002C13B801CE0101960E94D21369E771E0BE
:100CB000CE0101960E94D21320E030E040E054E0E3
:100CC00068E173E0CE0101960E94741488E193E01C
:100CD0000E9459040E943904CE0101960E94BE125E
:100CE00026960FB6F894DEBF0FBECDBFDF91CF9131
:100CF0001F910F9108950F931F93CF93DF93CDB75B
:100D0000DEB76E970FB6F894DEBF0FBECDBF8C0175
:100D100068E671E0CE0149960E942C13B801CE011D
:100D200049960E94D2136FE771E0CE0149960E9466
:100D3000D21320E030E040E054E068E173E0CE01FF
:100D400049960E94741488E193E00E9459040E941D
:100D5000390468E173E0CE0143960E942C13B80178
:100D6000CE010D960E942C1368E671E0CE01079625
:100D70000E942C13BE01635F7F4FCE0107960E9435
:100D8000141467E871E00E942714BC01CE0101969B
:100D90000E945913BE016F5F7F4FCE0143960E94A0
:100DA0006514182FCE0101960E94BE12CE0107963F
:100DB0000E94BE12CE010D960E94BE12111106C0F5
:100DC0006EEE70E089E197E00E94E70CCE01439659
:100DD0000E94BE12CE0149960E94BE126E960FB6B8
:100DE000F894DEBF0FBECDBFDF91CF911F910F9161
:100DF0000895CF92DF92EF92FF92CF93DF93EC01B1
:100E00006A017B010E94410660913E0170913F01A1
:100E1000882777FD8095982F0E947B15CE010E9430
:100E2000830460913E0170913F01882777FD809592
:100E3000982F0E947B15CE010E947B0660913E0197
:100E400070913F01882777FD8095982F0E947B1530
:100E5000B701A601CE010E94FD0460913E01709190
:100E60003F01882777FD8095982FDF91CF91FF90E4
:100E7000EF90DF90CF900C947B15CF93DF93CDB79D
:100E8000DEB727970FB6F894DEBF0FBECDBF29831C
:100E90003A834B835C836D837E838F8361E0809193
:100EA0002C010E946F16FE013196CE010896219109
:100EB0002EBD00000DB407FEFDCF2EB5E817F907D3
:100EC000B1F760E080912C010E946F1627960FB653
:100ED000F894DEBF0FBECDBFDF91CF910895CF93C1
:100EE000DF93CDB7DEB727970FB6F894DEBF0FBEFE
:100EF000CDBF382F8A839B836C837D83742F4E8371
:100F00005F8322E5492F562F6D818F810E943D0717
:100F100027960FB6F894DEBF0FBECDBFDF91CF91FD
:100F200008950F931F93CF93DF93EC018C01015031
:100F30001109000F111FF801E051FD4F80810E943F
:100F4000A516892B81F462EA71E089E197E00E949D
:100F5000CA0C4AE050E0BE0189E197E00E94C00D52
:100F600066EB71E033C080913D01882331F0C130E0
:100F7000D10519F467EC71E029C0F801E051FD4F8B
:100F800060E080810E946F1680913D01882359F0B6
:100F900081E090E0909331018093300161E0809195
:100FA0002A010E946F1680913C018823B9F067EAFC
:100FB00072E089E197E00E94CA0C4AE050E0BE016D
:100FC00089E197E00E94C00D6CE072E089E197E052
:100FD000DF91CF911F910F910C940B0DDF91CF9169
:100FE0001F910F9108950F931F93CF93DF9300EFFD
:100FF00012E0C0E0D0E080910A0190910B01C81787
:10100000D9074CF4F80180810E5F1F4F60E00E9409
:101010006F162196F0CF80913D01882379F081E011
:1010200090E0909331018093300161E080912A013A
:10103000DF91CF911F910F910C946F16DF91CF919B
:101040001F910F91089565E172E089E197E00E9498
:101050000B0D69E272E089E197E00E94CA0C4091B1
:1010600038015091390160913A0170913B0122E0C1
:1010700030E089E197E00E94B30E63E372E089E11A
:1010800097E00E940B0D68E372E089E197E00E940F
:10109000CA0C80910801909109010E94A705AB013B
:1010A000BC0122E030E089E197E00E94B30E63E3E7
:1010B00072E089E197E00E940B0D68E272E089E13D
:1010C00097E00E940B0D62E472E089E197E00E94D4
:1010D0000B0D69E272E089E197E00E94CA0C409131
:1010E000340150913501609136017091370122E051
:1010F00030E089E197E00E94B30E63E372E089E19A
:1011000097E00E940B0D68E372E089E197E00E948E
:10111000CA0C80910601909107010E94A705AB01BE
:10112000BC0122E030E089E197E00E94B30E63E366
:1011300072E089E197E00E940B0D68E272E089E1BC
:1011400097E00C940B0D8130910519F0029771F026
:101150000895409338015093390160933A01709398
:101160003B0180910801909109010CC0409334012A
:1011700050933501609336017093370180910601D9
:10118000909107010C94FD04809108019091090150
:101190000E94A705609314037093150380931603B0
:1011A0009093170380910601909107010E94A70573
:1011B00060931003709311038093120390931303B1
:1011C00008950F931F93CF93DF93EC018C0101508F
:1011D0001109000F111FF801E051FD4F80810E949D
:1011E000A516019781F467EA72E089E197E00E9411
:1011F000CA0C4AE050E0BE0189E197E00E94C00DB0
:1012000063E572E009C080913D01882369F0C13037
:10121000D10551F461E672E089E197E0DF91CF9169
:101220001F910F910C940B0DF801E051FD4F61E0FF
:1012300080810E946F1680913D01882361F1E091C9
:101240003001F0913101EE0FFF1FE251FD4F60E0E0
:1012500080810E946F1680913C018823E1F080918B
:101260003001909131010297B4F066EA72E089E1B1
:1012700097E00E94CA0C60913001709131014AE000
:1012800050E089E197E00E94C00D6CE072E089E1D6
:1012900097E00E940B0D80913D01882321F0D093AF
:1012A0003101C093300180913C01882399F067EAB5
:1012B00072E089E197E00E94CA0C4AE050E0BE016A
:1012C00089E197E00E94C00D6EEA72E089E197E043
:1012D0000E940B0DDF91CF911F910F910C94C408C8
:1012E000CF93DF93EC0180910A0190910B018C1751
:1012F0009D0794F0CE010E94E10860913201709147
:101300003301882777FD8095982F0E947B15CE01A9
:10131000DF91CF910C949107DF91CF910895CF93F6
:10132000DF931F92CDB7DEB76983DC01ED91FC91AD
:101330000280F381E02D41E050E0BE016F5F7F4FFE
:1013400009950F90DF91CF910895CF93DF93EC0132
:101350008C859D8597FF05C082E00E94E90F9D87DF
:101360008C878C859D85DF91CF91089583E00C94C7
:101370003E12FC018485958597FD06C082E00E949F
:10138000910F90E00196089582E00E94910F90E005
:101390000895FC018485958597FD05C02FEF3FEFEB
:1013A00035872487089582E00C94E90FCF93DF936B
:1013B000EC0180914701882331F083E00E941A10EC
:1013C0001816190634F081E090E09B838A8380E050
:1013D00090E0DF91CF910895FC0120812E5F208362
:1013E00042E450E06CE671E080E80C94B510FC013A
:1013F00081819081913A59F4813209F03CC047E0F3
:1014000050E060E471E080E00E94B51043C091328A
:1014100091F5803239F467E070E080E491E00E9459
:10142000E61006C0823209F035C082818093470100
:101430008091400190914101A0914201B0914301FE
:10144000803B9440A105B105C1F48091470180FD26
:1014500014C087E797E790930108809300082BE07A
:1014600088E190E00FB6F894A895809360000FBED5
:10147000209360000FC080E0089588E10FB6F894D3
:1014800080936000109260000FBEA8951092010832
:101490001092000881E008952FEF3FEFFC0135879F
:1014A0002487089510921C0710921B0788EE93E082
:1014B000A0E0B0E080931D0790931E07A0931F0744
:1014C000B093200789EB92E090931A078093190755
:1014D0008FEF9FEF90932607809325070895FC01D7
:1014E000818D228D90E0805C9F4F821B91098F73CC
:1014F00099270895FC01918D828D981731F0828D86
:10150000E80FF11D858D90E008958FEF9FEF08950E
:10151000FC01918D828D981761F0828DDF01A80FFB
:10152000B11D5D968C91928D9F5F9F73928F90E01D
:1015300008958FEF9FEF08958CE09CE0892B49F090
:1015400080E090E0892B29F00E940C0C81110C9412
:1015500000000895FC01848DDF01A80FB11DA35A7E
:10156000BF4F2C91848D90E001968F739927848FC3
:10157000A689B7892C93A089B1898C9180648C93BA
:10158000938D848D981306C00288F389E02D8081A5
:101590008F7D80830895CF93DF93EC01888D88231E
:1015A000C9F0EA89FB89808185FD05C0A889B989D0
:1015B0008C9186FD0FC00FB607FCF5CF808185FFAB
:1015C000F2CFA889B9898C9185FFEDCFCE010E9419
:1015D000AA0AE7CFDF91CF910895CF92DF92FF92D1
:1015E0000F931F93CF93DF931F92CDB7DEB76C019C
:1015F000DC015B969C915B975C968C915C97981351
:1016000007C05096ED91FC915197808185FD32C0C5
:10161000F601038D10E00F5F1F4F0F731127F02E9F
:10162000F601848DF81211C00FB607FCF9CFD60170
:101630005096ED91FC915197808185FFF1CFC601C5
:1016400069830E94AA0A6981EBCF838DE80FF11D9F
:10165000E35AFF4F6083D6015B960C935B975296DB
:10166000ED91FC91539780818062808381E0589650
:101670008C930DC0D6015696ED91FC9157976083DF
:101680005096ED91FC91519780818064808381E038
:1016900090E00F90DF91CF911F910F91FF90DF901D
:1016A000CF900895BF92CF92DF92EF92FF92CF93A7
:1016B000DF93EC016A017B01B22EE889F98982E0AF
:1016C0008083411581EE580761057105A1F060E046
:1016D00079E08DE390E0A70196010E94311A215034
:1016E0003109410951095695479537952795211597
:1016F00080E1380798F0E889F989108260E874E899
:101700008EE190E0A70196010E94311A2150310923
:10171000410951095695479537952795EC85FD85E3
:101720003083EE85FF852083188EEC89FD89B08299
:10173000EA89FB89808180618083EA89FB898081D5
:1017400088608083EA89FB89808180688083EA8958
:10175000FB8980818F7D8083DF91CF91FF90EF9017
:10176000DF90CF90BF9008951F920F920FB60F9207
:1017700011242F938F939F93EF93FF93E091790719
:10178000F0917A078081E0917F07F091800782FDD8
:1017900012C09081809182078F5F8F7320918307A1
:1017A000821751F0E0918207F0E0E759F84F958FEA
:1017B0008093820701C08081FF91EF919F918F916B
:1017C0002F910F900FBE0F901F9018951F920F92A0
:1017D0000FB60F9211242F933F934F935F936F9304
:1017E0007F938F939F93AF93BF93EF93FF9389E67C
:1017F00097E00E94AA0AFF91EF91BF91AF919F914C
:101800008F917F916F915F914F913F912F910F90A9
:101810000FBE0F901F90189589E697E00E946F0AFF
:1018200021E0892B09F420E0822F089510926C07A3
:1018300010926B0788EE93E0A0E0B0E080936D0714
:1018400090936E07A0936F07B093700789EC92E0B6
:1018500090936A07809369078DEC90E090937607E8
:10186000809375078CEC90E09093780780937707CE
:1018700088EC90E090937A078093790789EC90E068
:1018800090937C0780937B078AEC90E090937E078F
:1018900080937D078EEC90E09093800780937F0784
:1018A0001092820710928307109284071092850786
:1018B0000895CF92DF92EF92FF920F931F93CF93F1
:1018C000DF936C017A01EB01E60EF71E00E010E0F9
:1018D000CE15DF0561F06991D601ED91FC91019083
:1018E000F081E02DC6010995080F191FF1CFC8013D
:1018F000DF91CF911F910F91FF90EF90DF90CF90EC
:1019000008956115710581F0DB010D900020E9F764
:10191000AD0141505109461B570BDC01ED91FC9183
:101920000280F381E02D099480E090E00895EF9229
:10193000FF920F931F93CF93DF938C01FB01C0E0C5
:10194000D0E064917F018FEFE81AF80A662361F016
:10195000D801ED91FC910190F081E02DC80109952D
:10196000C80FD91FF701EDCFCE01DF91CF911F91A5
:101970000F91FF90EF900895DC01ED91FC91DB0158
:1019800014964D915C9115976D917C910280F38135
:10199000E02D09940C94810CDC01ED91FC910190F7
:1019A000F081E02D09940F931F93CF93DF93EC0107
:1019B0006DE00E94CC0C8C016AE0CE010E94CC0C40
:1019C000800F911FDF91CF911F910F9108950F9379
:1019D0001F93CF93DF93EC010E94970C8C01CE01F3
:1019E0000E94D30C800F911FDF91CF911F910F9117
:1019F00008950F931F93CF93DF93EC010E94BC0CCB
:101A00008C01CE010E94D30C800F911FDF91CF91EA
:101A10001F910F9108950F931F93CF93DF93EC01C4
:101A20000E94810C8C01CE010E94D30C800F911F6B
:101A3000DF91CF911F910F9108958F929F92AF9256
:101A4000BF92CF92DF92EF92FF920F931F93CF93AB
:101A5000DF93CDB7DEB7A1970FB6F894DEBF0FBE08
:101A6000CDBF7C01C42EE52FCB01D22E19A221E0DF
:101A70002D1510F02AE0D22E8E010F5D1F4F8D2CF8
:101A8000912CA12CB12C6C2D7E2FA50194010E94CC
:101A9000311A8C2DD29E80191124015011098A30DF
:101AA00014F4805D01C0895CF80180832115310543
:101AB0004105510521F0C22EE32FCA01E4CFB80140
:101AC000C7010E94810CA1960FB6F894DEBF0FBE2D
:101AD000CDBFDF91CF911F910F91FF90EF90DF90DD
:101AE000CF90BF90AF909F908F900895CF92DF924C
:101AF000EF92FF920F931F93CF93DF93EC016A0154
:101B00007B012115310579F4E881F9810190F0819B
:101B1000E02D642FDF91CF911F910F91FF90EF90F7
:101B2000DF90CF9009942A303105E9F477FF1AC08D
:101B30006DE20E94CC0C8C0144275527BA014C1948
:101B40005D096E097F092AE0CE010E941D0D800FFC
:101B5000911FDF91CF911F910F91FF90EF90DF9038
:101B6000CF9008952AE0B701A601CE01DF91CF9171
:101B70001F910F91FF90EF90DF90CF900C941D0D6F
:101B80009A01AB01662757FD6095762F0C94760D70
:101B90004F925F926F927F928F929F92AF92BF927D
:101BA000CF92DF92EF92FF920F931F93CF93DF9329
:101BB000EC016A017B01B22E9A01AB01C701B601AB
:101BC0000E942D1A882319F065ED72E027C02601C6
:101BD0003701E89477F82FEF3FEF4FE75FE7C30156
:101BE000B2010E942D1A81110DC02FEF3FEF4FE778
:101BF0005FE7C301B2010E94771818161CF469ED63
:101C000072E00CC02FEF3FEF4FE75FE4C701B60172
:101C10000E94C6191816ACF46DED72E0CE01DF918A
:101C2000CF911F910F91FF90EF90DF90CF90BF90D9
:101C3000AF909F908F907F906F905F904F900C949B
:101C4000810C2FEF3FEF4FE75FECC701B6010E9419
:101C5000771887FDE1CF20E030E0A901C701B60188
:101C60000E94771887FF0AC06DE2CE010E94CC0C5B
:101C70008C01F7FAF094F7F8F09402C000E010E05D
:101C8000A12C60E070E080E09FE3AB1441F020E025
:101C900030E040E251E40E947B18A394F6CF9B0110
:101CA000AC01C701B6010E9413186B017C010E94B0
:101CB000E8182B013C010E9414199B01AC01C701DB
:101CC000B6010E9412186B017C012AE0B301A20147
:101CD000CE010E941D0D080F191FBB2039F063E1D2
:101CE00072E0CE010E94810C080F191F7B2C772017
:101CF00041F120E030E040E251E4C701B6010E942A
:101D0000CA196B017C010E94E3184B01AA2497FCBD
:101D1000A094BA2C2AE030E0B501A401CE010E94C3
:101D2000760D080F191FC501B4010E9416199B01F9
:101D3000AC01C701B6010E9412186B017C017A94B4
:101D4000D6CFC801DF91CF911F910F91FF90EF90F7
:101D5000DF90CF90BF90AF909F908F907F906F90CB
:101D60005F904F9008950C94C80D0F931F93CF93DD
:101D7000DF93EC010E944C15688779878A879B87DF
:101D8000E881F9810680F781E02DCE01099597FF62
:101D900015C00E944C15088519852A853B85601B56
:101DA000710B820B930B0C811D812E813F8160177B
:101DB00071078207930720F38FEF9FEFDF91CF9199
:101DC0001F910F910895AF92BF92CF92DF92EF9241
:101DD000FF920F931F93CF93DF936C01790121152D
:101DE0003105B9F08A01C0E0D0E0A62EBB24A7FCE3
:101DF000B094C6010E94B50E97FD0EC08A159B05D2
:101E000059F0F80181938F012196CE15DF0589F7EE
:101E100003C080E090E001C0CE01DF91CF911F911F
:101E20000F91FF90EF90DF90CF90BF90AF9008950B
:101E300040910A0850910B08209108083091090838
:101E400042175307B4F49091E8009570E1F3909134
:101E5000E80092FD19C08093F10080910A089091EA
:101E60000B0801968F739927892B19F48EEF8093B5
:101E7000E80080910A0890910B08019690930B0856
:101E800080930A0881E0089580E00895CF92DF9260
:101E9000FF920F931F93CF93DF931F92CDB7DEB7BF
:101EA000082F162F862F880F8E5F99830E94180F98
:101EB00083E00E94180FF02EC02E9981D92E8C2D10
:101EC0008F19811778F4F60184910E94180F082F5A
:101ED00080E00E94180F8023FFEFCF1ADF0A8111E4
:101EE000EECF01C081E00F90DF91CF911F910F9154
:101EF000FF90DF90CF900895615030F02091F10075
:101F0000FC0120830196F8CF289A84E680930D087F
:101F100008952FB7FC012083F89467706093E9005F
:101F20000895CF93DF931F92CDB7DEB7682FCE0110
:101F300001960E94890F8091F20099819FBF0F90B6
:101F4000DF91CF910895FF920F931F93CF93DF936B
:101F500000D0CDB7DEB7F62E8A0190910C089923F8
:101F600011F057FF03C08FEF9FEF2BC0682FCE01FA
:101F700001967A830E94890F8091F20090E0A80177
:101F80007A81801791070CF4AC01EF2DF72FF40E36
:101F900084E6FE1639F0289A80930D089091F1009E
:101FA0009193F7CF4115510521F08091F2008823DC
:101FB00021F089818FBFCA0104C08BE68093E800BD
:101FC000F8CF0F900F90DF91CF911F910F91FF905D
:101FD0000895CF93DF931F92CDB7DEB741E050E075
:101FE000BE016F5F7F4F0E94A30F019719F4898193
:101FF00090E002C08FEF9FEF0F90DF91CF91089597
:10200000CF93DF931F92CDB7DEB7682FCE01019635
:102010000E94890F9091E800892F807295FF04C07B
:102020009091F20080E4891B99819FBF0F90DF910E
:10203000CF9108956F927F928F929F92AF92BF92AD
:10204000CF92DF92EF92FF920F931F93CF93DF9384
:102050001F92CDB7DEB7782E7B01C42EB52E8091AE
:102060000C08882369F0042F152F8AEFD82E872DAE
:102070008072982E9AE3A92E872D8074882E11C025
:102080008FEF9FEF57C0872D0E940010682E81119F
:102090000CC0DA94A9F361E070E080E090E00E9467
:1020A0007B150115110579F73BC0282F30E0021789
:1020B00013070CF4602E672DCE0101960E94890F44
:1020C0008091E80085FF29C0262D30E0021B130B0C
:1020D000992039F06A948FEF6816B1F01092F100F0
:1020E000F9CFF701862D77FE07C0815058F0949103
:1020F0009093F1003196F9CF815020F09191909317
:10210000F100FACFE20EF31E8091E80085FF0FC0C8
:102110000115110511F481100AC089818FBFC1CF4B
:102120005D9A84E680930E088C2D9B2D03C0A092AF
:10213000E800F3CF0F90DF91CF911F910F91FF90A7
:10214000EF90DF90CF90BF90AF909F908F907F9057
:102150006F9008951092E90010920B0810920A08EF
:1021600090930908809308080895CF92DF92FF9218
:102170000F931F93CF93DF9300D0CDB7DEB7F82E28
:102180008A016B0101151105B1F0F601F7FE02C0DD
:10219000849101C0808149835A830E94180F0150A5
:1021A0001109FFEFCF1ADF0A49815A818111EACF65
:1021B0008FEF9FEF01C0CA010F900F90DF91CF9179
:1021C0001F910F91FF90DF90CF9008951F93CF93B1
:1021D000DF931F92CDB7DEB7162F2091E80022FFC4
:1021E000FCCF612F79830E947C0F8BEF8093E800F6
:1021F000812F7981972F0F90DF91CF911F910895B3
:10220000CF93DF931F92CDB7DEB71982CE0101962F
:102210000E94EC09CE0101960E94EC16898190E0A3
:102220000F90DF91CF9108951F920F920FB60F92EA
:102230001124EF92FF920F931F932F933F934F938D
:102240005F936F937F938F939F93AF93BF93EF931E
:10225000FF93CF93DF93CDB7DEB76297DEBFCDBFDD
:102260001092E9008091E80083FFEBC068E0CE01A6
:102270000A960E947C0F82EF8093E8009A8597FF70
:1022800005C08091E80080FFFCCF03C08EEF8093F3
:10229000E800892F807609F0B9C08B85811105C0CF
:1022A0001092F1001092F100C5C0282F2D7F21302F
:1022B00009F4C0C0853049F48091E80080FFFCCF6C
:1022C0008C8580688093E300B5C0863009F076C0C5
:1022D0002D85E888F988223071F580E090E02A8B1E
:1022E0000E94AA100E94001199E08E010F5F1F4FFB
:1022F000F801392F11923A95E9F799832A892A83AF
:1023000091E09E8390E898879AEF998720910A0838
:1023100030910B08275F3F4F3C832B838D83C70190
:102320000E94AA1049E050E0B80180E00E94B51078
:102330000E9400117FC0C7012A8B0E94AA102A891F
:10234000223241F482E290E00E94F716892B09F0D4
:1023500071C074C0213069F488899989089711F493
:102360002093070880910708811118C065EC71E07F
:102370001AC0233009F062C08C85882391F0823026
:1023800021F46DE083EE91E006C0813009F056C083
:102390006BE087ED91E00E94460F4AC063EB71E06D
:1023A00002C061EF71E06115710509F447C0FB01DE
:1023B000449150E080E80E94B5103CC0873009F499
:1023C0003DC0883021F481E08093F10033C0893032
:1023D00089F5937099F5EFEAF1E081E021E096E369
:1023E0008093E9002093EB0034913093EC009093BC
:1023F000ED008F5F3196853099F78EE78093EA0084
:102400001092EA008C8580930C0814C08889998901
:102410000E94AA108E85811105C0CE010A960E94E5
:10242000F70906C0823051F4CE010A960E941F17A8
:10243000882321F08EEF8093E80003C081E280932F
:10244000EB0062960FB6F894DEBF0FBECDBFDF91F2
:10245000CF91FF91EF91BF91AF919F918F917F911C
:102460006F915F914F913F912F911F910F91FF902D
:10247000EF900F900FBE0F901F9018958093E9007A
:102480008091F200882319F08AE38093E800089590
:102490001F920F920FB60F9211242F933F934F93D9
:1024A0005F936F937F938F939F93AF93BF93EF93BC
:1024B000FF938091E1001092E10083FF0FC0109222
:1024C000E90091E09093EB001092EC0092E390937E
:1024D000ED0010920C0898E09093F00082FF1DC070
:1024E00083E00E943E1280910E08882339F080918B
:1024F0000E08815080930E08882369F080910D08A2
:10250000882359F080910D08815080930D08811126
:1025100004C0289802C05D98F1CFFF91EF91BF9160
:10252000AF919F918F917F916F915F914F913F916B
:102530002F910F900FBE0F901F90189510920C08BE
:1025400081E08093D70080EA8093D80082E189BD42
:1025500009B400FEFDCF61E070E080E090E00E94F1
:102560007B1580E98093D8008CE08093E200109284
:10257000E000559A209A5D9828980895FC01808182
:1025800091810C942C1BCF93DF93EC01888199816E
:10259000009711F00E942C1B198218821D821C8248
:1025A0001B821A82DF91CF9108950F931F93CF93CF
:1025B000DF93EC018B016F5F7F4F888199810E94CF
:1025C000BB1B009731F0998388831B830A8381E0CA
:1025D00001C080E0DF91CF911F910F910895CF93BB
:1025E000DF93EC0188819981892B29F08A819B8175
:1025F0008617970760F4CE010E94D512882341F018
:102600008C819D81892B19F4E881F981108281E008
:10261000DF91CF910895EF92FF920F931F93CF9385
:10262000DF93EC017B018A01BA010E94EF12811154
:1026300004C0CE010E94C31207C01D830C83B701E2
:10264000888199810E949A1CCE01DF91CF911F91C0
:102650000F91FF90EF900895FC0111821082138278
:102660001282158214826115710559F0FB010190E7
:102670000020E9F7AF0141505109461B570B0C945C
:102680000B130895CF93DF93EC01FB018617970797
:1026900061F0608171816115710529F04481558176
:1026A0000E940B1302C00E94C312CE01DF91CF9192
:1026B0000895FC0111821082138212821582148205
:1026C0000C944213CF93DF93EC016115710561F017
:1026D000FB0101900020E9F7AF0141505109461B71
:1026E000570B0E940B1302C00E94C312CE01DF9150
:1026F000CF9108950F931F93CF93DF93CDB7DEB79C
:1027000062970FB6F894DEBF0FBECDBF8C01CB0130
:10271000F80111821082138212821582148250E015
:10272000BE016F5F7F4F0E94BE1CBE016F5F7F4F77
:10273000C8010E94621362960FB6F894DEBF0FBE06
:10274000CDBFDF91CF911F910F910895EF92FF922E
:102750000F931F93CF93DF93EC017B010C811D81BD
:102760006115710511F480E016C04115510591F015
:10277000040F151FB8010E94EF128823A1F32881CE
:1027800039818C819D81B701820F931F0E949A1C11
:102790001D830C8381E0DF91CF911F910F91FF90FA
:1027A000EF9008956115710559F0FB01019000202B
:1027B000E9F7AF0141505109461B570B0C94A61382
:1027C00080E00895EF92FF920F931F93CF93DF93D2
:1027D000CDB7DEB764970FB6F894DEBF0FBECDBF9E
:1027E0007C01CB01BA018E010F5F1F4F22E044E054
:1027F0000E94731AFC0101900020E9F7AF014150DB
:102800005109481B590BBC01C7010E94A6136496CD
:102810000FB6F894DEBF0FBECDBFDF91CF911F91F1
:102820000F91FF90EF900895CF93DF93EC01FB01A0
:1028300044815581608171810E94A613811103C07A
:10284000CE010E94C312CE01DF91CF910895CF93A4
:10285000DF93EC016115710569F0FB010190002027
:10286000E9F7AF0141505109461B570B0E94A613CF
:10287000811103C0CE010E94C312CE01DF91CF911E
:102880000895FA01DB0114964D915C911597DC01D6
:1028900014962D913C911597241B350B2E173F074D
:1028A00088F08D919C91009769F0DB016D917C918E
:1028B0006115710539F08E0F9F1F0E94A11C21E048
:1028C000892B09F020E0822F0895FC014481558175
:1028D000FB01248135814217530720F040E050E08E
:1028E0000C94411480E008950F931F93CF93DF93CE
:1028F000EB0141155105E9F02097D9F0FC01648105
:10290000758126173707A0F4621B730B8A010150EB
:1029100011096017710708F48B01FC016081718156
:10292000620F731FA801CE010E94AF1CC00FD11F00
:102930001882DF91CF911F910F910895BF92CF928E
:10294000DF92EF92FF920F931F93CF93DF936C016F
:102950007B01EA0189012417350720F48D2FE90155
:10296000042F182F68E272E0C6010E942C13D701D1
:1029700014968D919C911597C817D907C8F48017A4
:10298000910708F48C01D701ED91FC911197E00FAC
:10299000F11FB08010826D917C916C0F7D1FC6017C
:1029A0000E946213D701ED91FC91E00FF11FB082FC
:1029B000C601DF91CF911F910F91FF90EF90DF90B3
:1029C000CF90BF900895FC0180819181009711F014
:1029D0000C94851C60E070E0CB01089508950E947E
:1029E000A3150E94EE1486E098E00E949E120E94B9
:1029F0008402CCE9DAE00E9406032097E1F30E940A
:102A00009C0AF9CF1F920F920FB60F9211242F93A9
:102A10003F938F939F93AF93BF93809110089091B2
:102A20001108A0911208B091130830910F0823E00B
:102A3000230F2D3720F40196A11DB11D05C026E8F6
:102A4000230F0296A11DB11D20930F08809310083B
:102A500090931108A0931208B09313088091140862
:102A600090911508A0911608B09117080196A11D24
:102A7000B11D8093140890931508A0931608B09385
:102A80001708BF91AF919F918F913F912F910F9018
:102A90000FBE0F901F9018952FB7F89460911008F3
:102AA0007091110880911208909113082FBF08951A
:102AB0003FB7F8948091140890911508A0911608DA
:102AC000B091170826B5A89B05C02F3F19F00196B5
:102AD000A11DB11D3FBF6627782F892F9A2F620F46
:102AE000711D811D911D42E0660F771F881F991F80
:102AF0004A95D1F70895CF92DF92EF92FF92CF934C
:102B0000DF936B017C010E945815EB01C114D104C5
:102B1000E104F10489F00E9411180E9458156C1B01
:102B20007D0B683E734090F381E0C81AD108E1083C
:102B3000F108C851DC4FEACFDF91CF91FF90EF90C1
:102B4000DF90CF900895789484B5826084BD84B579
:102B5000816084BD85B5826085BD85B5816085BD98
:102B6000EEE6F0E0808181608083E1E8F0E01082B1
:102B7000808182608083808181608083E0E8F0E0F2
:102B8000808181608083E1E9F0E0808182608083E0
:102B9000808181608083E0E9F0E0808181608083D2
:102BA000E1ECF0E0808184608083808182608083BA
:102BB000808181608083E3ECF0E0808181608083AC
:102BC000E0ECF0E0808182608083E2ECF0E08081E4
:102BD00081608083EAE7F0E0808184608083808187
:102BE000826080838081816080838081806880832F
:102BF000089590E0FC013197EF30F105B0F5E85908
:102C0000FF4F0C94531A809180008F7703C08091FE
:102C100080008F7D80938000089580918000877F61
:102C2000F9CF84B58F7702C084B58F7D84BD0895B8
:102C3000809190008F7707C0809190008F7D03C0B6
:102C400080919000877F8093900008958091C000CC
:102C50008F7703C08091C0008F7D8093C00008955E
:102C60008091C200877F8093C2000895CF93DF9345
:102C700090E0FC01ED5EFD4F2491FC01EF5CFD4F07
:102C80008491882349F190E0880F991FFC01E55950
:102C9000FD4FA591B491835A9D4FFC01C591D491EC
:102CA0009FB7611108C0F8948C91209582238C9372
:102CB000888182230AC0623051F4F8948C91322FBB
:102CC000309583238C938881822B888304C0F89469
:102CD0008C91822B8C939FBFDF91CF9108950F939E
:102CE0001F93CF93DF931F92CDB7DEB7282F30E02D
:102CF000F901EB50FE4F8491F901ED5EFD4F149107
:102D0000F901EF5CFD4F04910023C9F0882321F005
:102D100069830E94F9156981E02FF0E0EE0FFF1F33
:102D2000E35AFD4FA591B4919FB7F8948C9161112E
:102D300003C01095812301C0812B8C939FBF0F90FE
:102D4000DF91CF911F910F910895CF93DF93282F9B
:102D500030E0F901EB50FE4F8491F901ED5EFD4F3B
:102D6000D491F901EF5CFD4FC491CC2391F0811116
:102D70000E94F915EC2FF0E0EE0FFF1FE15BFD4F15
:102D8000A591B4912C912D2381E090E021F480E075
:102D900002C080E090E0DF91CF910895FF920F9301
:102DA0001F93CF93DF93EC01F62EE881F981048025
:102DB000F581E02D09958C01E881F9810680F78184
:102DC000E02D6F2DCE010995C8019927DF91CF9194
:102DD0001F910F91FF900895FC0120812F5F2083A8
:102DE00049E150E069EF72E080E80C94B51045E6E7
:102DF00050E062E173E080E80C94B510EF92FF922E
:102E00000F931F93CF93DF931F92CDB7DEB78983C4
:102E10008B017A0141E050E0BE016F5F7F4F84E09B
:102E20000E941A10A701B80184E40E941A100F90A2
:102E3000DF91CF911F910F91FF90EF900895FC01CA
:102E400091818081813A31F481E0913091F0933029
:102E500089F411C0813271F49B3021F48281809316
:102E6000490105C09A3031F482818093480181E0A4
:102E70000895089580E0089548E050E082E00C94C1
:102E8000FE16CF93DF93DC01683818F0E8E7E60F11
:102E900025C0E62FF0E067FF11C0E058F10981E09E
:102EA00090E001C0880FEA95EAF714969C91149778
:102EB000982B14969C931497E0E010C0E758FD4FB0
:102EC000E491EE2309F440C0E7FF08C014968C910A
:102ED0001497826014968C931497EF7716968C91C2
:102EE00016978E1741F117968C9117978E1719F137
:102EF00018968C9118978E17F1F019968C91199756
:102F00008E17C9F01A968C911A978E17A1F01B96FE
:102F10008C911B978E1779F080E090E0ED01C80F3F
:102F2000D91F2E81211102C0EE8305C00196863083
:102F30009105A1F709C0BD016C5F7F4FCD010E94D3
:102F40003C1781E090E008C081E090E013969C93EC
:102F50008E93129780E090E0DF91CF9108956838CA
:102F600018F0E8E7E60F25C0E62FF0E067FF12C093
:102F7000E058F10921E030E001C0220FEA95EAF7BC
:102F80002095DC0114963C911497322314963C93BF
:102F9000E0E00FC0E758FD4FE491EE2329F1E7FF91
:102FA00008C0DC0114962C9114972D7F14962C9355
:102FB000EF7720E030E0EE2351F0DC01A20FB31FE9
:102FC00016964C9116974E1302C016961C922F5FC0
:102FD0003F4F2630310579F7BC016C5F7F4F0E946F
:102FE0003C1781E090E0089580E090E00895FC01B6
:102FF0001682178210861186128613861482BC01EF
:103000006C5F7F4F0C943C171092240810921B08A1
:1030100010921A0885EE92E0909319088093180890
:10302000089508955058BB27AA270ED075C166D1C0
:1030300030F06BD120F031F49F3F11F41EF45BC1EE
:103040000EF4E095E7FB51C1E92F77D180F3BA1771
:10305000620773078407950718F071F49EF58FC116
:103060000EF4E0950B2EBA2FA02D0B01B9019001A3
:103070000C01CA01A0011124FF27591B99F0593FE7
:1030800050F4503E68F11A16F040A22F232F342F2F
:103090004427585FF3CF469537952795A795F0407D
:1030A0005395C9F77EF41F16BA0B620B730B840B92
:1030B000BAF09150A1F0FF0FBB1F661F771F881F4A
:1030C000C2F70EC0BA0F621F731F841F48F48795A2
:1030D00077956795B795F7959E3F08F0B3CF939591
:1030E000880F08F09927EE0F979587950895D9D006
:1030F00008F481E008950CD00FC107D140F0FED054
:1031000030F021F45F3F19F0F0C0511139C1F3C024
:1031100014D198F39923C9F35523B1F3951B550B9B
:10312000BB27AA2762177307840738F09F5F5F4F9A
:10313000220F331F441FAA1FA9F333D00E2E3AF0DB
:10314000E0E830D091505040E695001CCAF729D0F5
:10315000FE2F27D0660F771F881FBB1F2617370744
:103160004807AB07B0E809F0BB0B802DBF01FF2774
:1031700093585F4F2AF09E3F510568F0B6C000C1DA
:103180005F3FECF3983EDCF3869577956795B795AE
:10319000F7959F5FC9F7880F911D9695879597F9C9
:1031A0000895E1E0660F771F881FBB1F6217730742
:1031B0008407BA0720F0621B730B840BBA0BEE1F57
:1031C00088F7E095089504D06894B111D9C00895A6
:1031D000BCD088F09F5790F0B92F9927B751A0F035
:1031E000D1F0660F771F881F991F1AF0BA95C9F79B
:1031F00012C0B13081F0C3D0B1E00895C0C0672FD4
:10320000782F8827B85F39F0B93FCCF3869577954A
:103210006795B395D9F73EF4909580957095619533
:103220007F4F8F4F9F4F0895E89409C097FB3EF45E
:1032300090958095709561957F4F8F4F9F4F992303
:10324000A9F0F92F96E9BB279395F6958795779581
:103250006795B795F111F8CFFAF4BB0F11F460FF41
:103260001BC06F5F7F4F8F4F9F4F16C0882311F099
:1032700096E911C0772321F09EE8872F762F05C0AD
:10328000662371F096E8862F70E060E02AF09A9548
:10329000660F771F881FDAF7880F9695879597F93D
:1032A0000895990F0008550FAA0BE0E8FEEF1616D7
:1032B0001706E807F907C0F012161306E407F5072A
:1032C00098F0621B730B840B950B39F40A2661F09E
:1032D000232B242B252B21F408950A2609F4A14041
:1032E000A6958FEF811D811D089597F99F6780E84E
:1032F00070E060E008959FEF80EC089500240A9448
:103300001616170618060906089500240A941216C0
:103310001306140605060895092E0394000C11F4F3
:10332000882352F0BB0F40F4BF2B11F460FF04C0A0
:103330006F5F7F4F8F4F9F4F089557FD9058440FF9
:10334000551F59F05F3F71F04795880F97FB991F04
:1033500061F09F3F79F087950895121613061406C1
:10336000551FF2CF4695F1DF08C01616170618064E
:10337000991FF1CF86957105610508940895E89429
:10338000BB2766277727CB0197F908958ADF08F4D2
:103390008FEF08950BD0C0CFB1DF28F0B6DF18F063
:1033A000952309F0A2CFA7CF1124EACFC6DFA0F35F
:1033B000959FD1F3950F50E0551F629FF001729FCA
:1033C000BB27F00DB11D639FAA27F00DB11DAA1FE9
:1033D000649F6627B00DA11D661F829F2227B00D36
:1033E000A11D621F739FB00DA11D621F839FA00DC1
:1033F000611D221F749F3327A00D611D231F849F11
:10340000600D211D822F762F6A2F11249F57504067
:103410008AF0E1F088234AF0EE0FFF1FBB1F661F02
:10342000771F881F91505040A9F79E3F510570F0BB
:103430005CCFA6CF5F3FECF3983EDCF386957795A3
:103440006795B795F795E7959F5FC1F7FE2B880FB6
:10345000911D9695879597F9089523DF880B990B11
:103460000895A1E21A2EAA1BBB1BFD010DC0AA1FC5
:10347000BB1FEE1FFF1FA217B307E407F50720F0DD
:10348000A21BB30BE40BF50B661F771F881F991F58
:103490001A9469F760957095809590959B01AC01A1
:1034A000BD01CF010895EE0FFF1F0590F491E02DAF
:1034B00009940E94641AA59F900DB49F900DA49F3B
:1034C000800D911D11240895A29FB001B39FC001EA
:1034D000A39F700D811D1124911DB29F700D811D40
:1034E0001124911D0895EF920F931F93CF93DF93B3
:1034F000E80147FF02C034E101C034E0E42FFF27B8
:10350000E7FDF095F7FF03C0F195E195F109E32E92
:10351000022F2E2FAE010E94EE1CCE01DF91CF9123
:103520001F910F91EF900895CF93DF938230910513
:1035300010F482E090E0E0912708F091280820E064
:1035400030E0A0E0B0E0309739F140815181481778
:103550005907B8F04817590771F482819381109781
:1035600029F013969C938E9312972CC09093280861
:103570008093270827C02115310531F042175307E2
:1035800018F0A901DB0101C0EF019A01BD01DF01C3
:103590000280F381E02DD7CF21153105F9F0281BEA
:1035A000390B2430310580F48A819B8161157105C6
:1035B00021F0FB019383828304C0909328088093B9
:1035C0002708FE01329644C0FE01E20FF31F8193EB
:1035D000919322503109398328833AC020912508DC
:1035E00030912608232B41F42091020130910301F0
:1035F0003093260820932508209100013091010185
:103600002115310541F42DB73EB740910401509189
:103610000501241B350BE0912508F0912608E217DF
:10362000F307A0F42E1B3F0B2817390778F0AC01E5
:103630004E5F5F4F2417350748F04E0F5F1F5093C2
:103640002608409325088193919302C0E0E0F0E0C2
:10365000CF01DF91CF910895CF93DF93009709F4C5
:1036600087C0FC01329713821282C0912708D09143
:103670002808209781F420813181280F391F8091FB
:103680002508909126088217930779F5F09326086C
:10369000E09325086DC0DE0120E030E0AE17BF07E3
:1036A00050F412964D915C9113979D01411551056F
:1036B00009F1DA01F3CFB383A28340815181840FF2
:1036C000951F8A179B0771F48D919C911197840F18
:1036D000951F02969183808312968D919C911397EA
:1036E000938382832115310529F4F0932808E09310
:1036F00027083EC0D9011396FC93EE9312974D9183
:103700005D91A40FB51FEA17FB0779F480819181C1
:10371000840F951F0296D90111969C938E938281F6
:10372000938113969C938E931297E0E0F0E08A8148
:103730009B81009719F0FE01EC01F9CFCE010296B2
:1037400028813981820F931F209125083091260806
:103750002817390769F4309729F410922808109235
:10376000270802C013821282D0932608C09325082E
:10377000DF91CF910895A0E0B0E0E1ECFBE10C9483
:10378000D620EC01CB01209719F40E94941AB8C0FE
:10379000FE01E60FF71F9E0122503109E217F307E1
:1037A00008F4ACC0D9010D911C91119706171707A9
:1037B000B8F00530110508F49FC0A8014450510924
:1037C0004617570708F498C002501109061B170B3B
:1037D000019311936D937C93CF010E942C1B8CC09D
:1037E0005B01A01AB10A4E01800E911EA09127081C
:1037F000B0912808612C712C60E070E0109709F4FA
:1038000049C0A815B905C9F5ED90FC90119767015D
:1038100042E0C40ED11CCA14DB0478F147018A18B7
:103820009B08640142E0C40ED11C1296BC90129712
:103830001396AC91B5E0CB16D10440F0B282A383CD
:1038400091828082D9018D939C9309C00E5F1F4F96
:103850000E0D1F1DF90111830083EB2DFA2F611549
:10386000710531F0DB011396FC93EE93129744C07F
:10387000F0932808E09327083FC06D917C91119741
:103880006616770608F43B01BD0112960D90BC91B7
:10389000A02DB4CF60912508709126086815790590
:1038A000E9F468167906D0F44091000150910101C5
:1038B0004115510541F44DB75EB760910401709117
:1038C0000501461B570BE417F507C0F4F0932608D3
:1038D000E0932508F901918380830EC00E94941A19
:1038E0007C01009759F0A801BE010E94911CCE01F5
:1038F0000E942C1BC70104C0CE0102C080E090E0F2
:10390000CDB7DEB7EEE00C94F220662777270C9453
:103910006C1E91111CC4803219F089508550D0F76B
:103920000895FB01DC0102C001900D92415050400E
:10393000D8F70895FB01DC0101900D920020E1F71A
:103940000895FB01DC014150504030F08D91019011
:10395000801919F40020B9F7881B990B0895FB0111
:10396000DC014150504048F001900D920020C9F711
:1039700001C01D9241505040E0F708954532510575
:1039800020F4423010F00C94C91CFB011082CB01D2
:103990000895BB274A3031F4992322F4BDE2909573
:1039A00081959F4F0C94D51CBB27FB015527AA2757
:1039B000880F991FAA1FA41710F0A41B83955051BC
:1039C000B9F7A05DAA3308F0A95DA193009779F734
:1039D000B111B1931192CB010C94C2206F927F92DE
:1039E0009F92AF92BF92CF92DF92EF92FF920F938E
:1039F0001F93CF93DF93CDB7DEB729970FB6F89417
:103A0000DEBF0FBECDBF6A01B22E102F0C3320F4E3
:103A1000FF24F394F00E02C04CE3F42E0F2D27E0A8
:103A2000AE014F5F5F4F0E94CF1F7981272F297012
:103A3000213031F0E1FC06C0E0FC06C060E005C0CA
:103A40006DE203C06BE201C060E2AE2DA07173FFB6
:103A500036C0662311F084E001C083E08B1510F4BA
:103A6000B81A01C0B12CA1110BC0F6018B2D90E248
:103A7000882319F091938150FBCFCB0CD11CB12C32
:103A8000662331F0F601608396012F5F3F4F690195
:103A9000C6010396E2FE05C02EE4F601208331E460
:103AA00004C02EE6F601208331E631832283FC0137
:103AB0002B2D30E22223F1F131932150FBCF72FF05
:103AC00040C0662311F084E001C083E08B1510F440
:103AD000B81A01C0B12CA1110BC0F6018B2D90E2D8
:103AE000882319F091938150FBCFCB0CD11CB12CC2
:103AF000662331F0F601608396012F5F3F4F690125
:103B0000C6010396E2FE07C029E4F60120832EE4F5
:103B1000218326E406C029E6F60120832EE62183D0
:103B200026E62283FC012B2D30E2222319F031936B
:103B30002150FBCFFC01EB0DF11D10828EEF9FEFAA
:103B4000B7C0B1E0611101C0B0E04B2F50E01816D2
:103B5000190624F49C012F5F3F4F02C021E030E0A2
:103B6000240F351F112329F0412F50E04F5F5F4F85
:103B700002C040E050E0420F531F2B2D30E04217AF
:103B8000530714F4B41A01C0B12C2E2D287159F426
:103B9000F6012B2D30E2222319F031932150FBCF77
:103BA000CB0CD11CB12CBB2331F0F6016083960104
:103BB0002F5F3F4F6901A1110BC0F6012B2D30E3A0
:103BC000222319F031932150FBCFCB0CD11CB12C07
:103BD000F80E0A81372F3071A32E74FF03C0013312
:103BE00009F4FA941F142CF42F2D293018F028E032
:103BF00001C021E0682F392F97FF02C060E030E05C
:103C0000462F532F612C712C3EE2932EBC01621B78
:103C100071099B01DC01A41BB50BE1E0F0E0EC0FA6
:103C2000FD1FAE0FBF1FE12EF12CF194E194F108BE
:103C30004F3FFFEF5F0731F4F6019082B6016F5FEF
:103C40007F4F6B01841795074CF02417350734F428
:103C5000BD01660D771DFB01118101C010E34150CC
:103C60005109FFEF6F1A7F0AB6016F5F7F4F4E1544
:103C70005F0524F0F60110836B01DACF481759076E
:103C800039F4063320F4053319F4A11001C011E30F
:103C9000F6011083FB018B2D90E2882319F091939C
:103CA0008150FBCFFB01EB0DF11D108280E090E015
:103CB00029960FB6F894DEBF0FBECDBFDF91CF912E
:103CC0001F910F91FF90EF90DF90CF90BF90AF903A
:103CD0009F907F906F900895A0E0B0E0E2E7FEE152
:103CE0000C94D8208B016115710521F0DB018C93B8
:103CF00011969C93EC015E01BFEFAB1ABB0A7501F4
:103D0000C8808C2D90E00E94891C892B11F0E50160
:103D1000F2CFEDE2CE1208C07E01F2E0EF0EF11C10
:103D2000C980DD24D39409C02BE2C21205C07E01F4
:103D300042E0E40EF11CC980D12CE701219743E059
:103D400050E06FE773E0CE010E94AA20892BC1F4F6
:103D5000239645E050E06AE773E0CE010E94AA2076
:103D6000892B09F425960115110519F0D801CD9379
:103D7000DC93D11006C160E070E080E89FE70AC1E3
:103D800043E050E067E773E0CE010E94AA20892B50
:103D900059F40115110509F4F9C0B2E0EB0EF11C5C
:103DA000F801F182E082F2C0F70160E070E0CB013F
:103DB000C0E0D0E07F01A0EDAA2EAC0C29E02A15CE
:103DC00030F14D2D4260B42E2D2D2870D2FE04C04E
:103DD000211125C0219623C021112197A5E0B0E033
:103DE0009B01AC010E94591A660F771F881F991F0B
:103DF0006A0D711D811D911D6839A9E97A078A072D
:103E0000A9E19A0760F0BD2DB660BB2E08C02EEF69
:103E1000A2120AC0D3FC50C04D2D4860B42E31967A
:103E2000D701CC90DB2CC6CF2C2D2F7D253409F06B
:103E300043C0A081AD3241F4BD2DB061DB2E7F01C6
:103E400022E0E20EF11C0CC07F01AB3231F04FEFEB
:103E5000E41AF40A21E030E006C0A2E0EA0EF11C08
:103E6000A18122E030E0A053AA3018F0E21AF30A50
:103E700023C0F70120E030E02038BCE03B075CF4D1
:103E8000A901440F551F440F551F240F351F220F42
:103E9000331F2A0F311DAF014F5F5F4F7A01A081A1
:103EA000A053AA3010F4FA01E7CFD4FE03C0319535
:103EB00021953109C20FD31FD1FE09C0011511058B
:103EC00031F0E1E0EE1AF108D801ED92FC920E9487
:103ED00014192D2D2370233019F04B015C0106C0FD
:103EE0004B015C01B7FAB094B7F8B09420E030E031
:103EF000A901C501B4010E947718882309F43EC0C6
:103F0000D7FF06C0D195C195D10906E913E002C0DB
:103F10000EEA13E06801B8E1CB1AD10890E2E92E6D
:103F2000F12CCE15DF0574F0F801259135914591FE
:103F30005491C501B4010E94CA194B015C01CE190C
:103F4000DF09EFCF04501109F594E7940C151D0516
:103F500041F78A2D880F8B2D881F8F3F49F020E075
:103F600030E0A901C501B4010E947718811106C093
:103F700082E290E090932A0880932908C501B40159
:103F800009C060E070E080E89FEF04C060E070E08E
:103F900080EC9FE7CDB7DEB7ECE00C94F42028303E
:103FA00008F027E03327DA01990F311D87FD916072
:103FB00000966105710539F432602E5F3D9330E360
:103FC0002A95E1F708959F3F30F08038710561052B
:103FD00009F03C5F3C5F3D93913008F08068911D93
:103FE000DF93CF931F930F93FF92EF92192F987F38
:103FF0009695E92F96959695E90FFF27E45FFB4F7D
:1040000099273327EE24FF24A701E70105900894A0
:10401000079428F4360FE71EF81E491F511D660F3E
:10402000771F881F991F0694A1F70590079428F41D
:10403000E70EF81E491F561FC11D770F881F991FD5
:10404000661F0694A1F70590079428F4F80E491FFF
:10405000561FC71FD11D880F991F661F771F069413
:10406000A1F70590079420F4490F561FC71FD81FCA
:10407000990F661F771F881F0694A9F784911095E2
:10408000177041F0D695C79557954795F794E794E3
:104090001A95C1F7E2EBF3E068941590159135910C
:1040A0006591959105907FE27395E118F10A430BB4
:1040B000560BC90BD009C0F7E10CF11E431F561F68
:1040C000C91FD01D7EF4703311F48A95E6CFE894B1
:1040D000015030F0080F0AF40027021708F4202FCF
:1040E0002395022F7A3328F079E37D932A95E9F717
:1040F00010C07D932A9589F6069497956795379514
:1041000017951794E118F10A430B560BC90BD00908
:1041100098F023957E9173957A3308F070E37C9341
:104120002013B8F77E9170617D9330F0839571E331
:104130007D9370E32A95E1F71124EF90FF900F91A2
:104140001F91CF91DF91992787FD90950895992729
:1041500088270895FB01DC014150504088F08D9183
:1041600081341CF08B350CF4805E659161341CF059
:104170006B350CF4605E861B611171F3990B089529
:10418000881BFCCFDC01FC01672F71917723E1F7DD
:10419000329704C07C916D9370836291AE17BF0714
:1041A000C8F308952F923F924F925F926F927F9241
:1041B0008F929F92AF92BF92CF92DF92EF92FF9237
:1041C0000F931F93CF93DF93CDB7DEB7CA1BDB0BE3
:1041D0000FB6F894DEBF0FBECDBF09942A88398888
:1041E00048885F846E847D848C849B84AA84B9848F
:1041F000C884DF80EE80FD800C811B81AA81B9819B
:10420000CE0FD11D0FB6F894DEBF0FBECDBFED01AE
:064210000895F894FFCFB1
:1042160000002B0880005F016201100016001500E7
:104226001400130012000D000C000B000A00090018
:10423600080007000600050004000300020017003E
:104246000100E803CDCC4C3E0000803F01010A008E
:1042560000E100000000000001014475726174690C
:104266006F6E206368616E67656420746F2000302E
:10427600340030320031310021002C4D2C44002C0A
:10428600532C002C53002C46002C4D522C32002C63
:10429600552C534C504D002C55534C504D002C4D25
:1042A600572C372C004F444F520043415252494538
:1042B600520043616E6E6F7420636C6F7365207677
:1042C600616C766520002C2069742773206E6F74EC
:1042D600206F70656E2E005761726E696E673A20A8
:1042E60056616C766520312063616E6E6F74206254
:1042F60065206469726563746C7920636C6F73659D
:104306006420696E20274F4E455F56414C56455FE7
:104316004F50454E27206D6F64652E0020434C4F4D
:104326005345442E004341525249455220466C6F34
:104336007720526174653A20002053657420746FAB
:104346003A2000204C504D002041637475616C3A50
:1043560020004F444F5220466C6F7720526174659F
:104366003A2000616C7265616479206F70656E2E0B
:10437600005761726E696E673A2056616C766520E9
:10438600312063616E6E6F742062652064697265A8
:1043960063746C79206F70656E656420696E202782
:1043A6004F4E455F56414C56455F4F50454E272070
:1043B6006D6F64652E002E56616C76652000204F69
:1043C60050454E2E00000000008F09D609B909C9D4
:1043D60009A509B60900000000ED0A590C6F0A8804
:1043E6000A7A0ACB0A6E616E00696E66006F76669F
:1043F6000000000000CE16590C4117AF17F7170042
:00000001FF
